{
  "contractName": "ERC20Burnable",
  "abi": [
    {
      "inputs": [
        {
          "internalType": "string",
          "name": "name",
          "type": "string"
        },
        {
          "internalType": "string",
          "name": "symbol",
          "type": "string"
        },
        {
          "internalType": "uint8",
          "name": "_decimals",
          "type": "uint8"
        },
        {
          "internalType": "uint256",
          "name": "supply",
          "type": "uint256"
        },
        {
          "internalType": "address",
          "name": "owner",
          "type": "address"
        }
      ],
      "stateMutability": "nonpayable",
      "type": "constructor"
    },
    {
      "anonymous": false,
      "inputs": [
        {
          "indexed": true,
          "internalType": "address",
          "name": "owner",
          "type": "address"
        },
        {
          "indexed": true,
          "internalType": "address",
          "name": "spender",
          "type": "address"
        },
        {
          "indexed": false,
          "internalType": "uint256",
          "name": "value",
          "type": "uint256"
        }
      ],
      "name": "Approval",
      "type": "event"
    },
    {
      "anonymous": false,
      "inputs": [
        {
          "indexed": true,
          "internalType": "address",
          "name": "previousOwner",
          "type": "address"
        },
        {
          "indexed": true,
          "internalType": "address",
          "name": "newOwner",
          "type": "address"
        }
      ],
      "name": "OwnershipTransferred",
      "type": "event"
    },
    {
      "anonymous": false,
      "inputs": [
        {
          "indexed": true,
          "internalType": "address",
          "name": "from",
          "type": "address"
        },
        {
          "indexed": true,
          "internalType": "address",
          "name": "to",
          "type": "address"
        },
        {
          "indexed": false,
          "internalType": "uint256",
          "name": "value",
          "type": "uint256"
        }
      ],
      "name": "Transfer",
      "type": "event"
    },
    {
      "inputs": [
        {
          "internalType": "address",
          "name": "owner",
          "type": "address"
        },
        {
          "internalType": "address",
          "name": "spender",
          "type": "address"
        }
      ],
      "name": "allowance",
      "outputs": [
        {
          "internalType": "uint256",
          "name": "",
          "type": "uint256"
        }
      ],
      "stateMutability": "view",
      "type": "function"
    },
    {
      "inputs": [
        {
          "internalType": "address",
          "name": "spender",
          "type": "address"
        },
        {
          "internalType": "uint256",
          "name": "amount",
          "type": "uint256"
        }
      ],
      "name": "approve",
      "outputs": [
        {
          "internalType": "bool",
          "name": "",
          "type": "bool"
        }
      ],
      "stateMutability": "nonpayable",
      "type": "function"
    },
    {
      "inputs": [
        {
          "internalType": "address",
          "name": "account",
          "type": "address"
        }
      ],
      "name": "balanceOf",
      "outputs": [
        {
          "internalType": "uint256",
          "name": "",
          "type": "uint256"
        }
      ],
      "stateMutability": "view",
      "type": "function"
    },
    {
      "inputs": [
        {
          "internalType": "address",
          "name": "spender",
          "type": "address"
        },
        {
          "internalType": "uint256",
          "name": "subtractedValue",
          "type": "uint256"
        }
      ],
      "name": "decreaseAllowance",
      "outputs": [
        {
          "internalType": "bool",
          "name": "",
          "type": "bool"
        }
      ],
      "stateMutability": "nonpayable",
      "type": "function"
    },
    {
      "inputs": [
        {
          "internalType": "address",
          "name": "spender",
          "type": "address"
        },
        {
          "internalType": "uint256",
          "name": "addedValue",
          "type": "uint256"
        }
      ],
      "name": "increaseAllowance",
      "outputs": [
        {
          "internalType": "bool",
          "name": "",
          "type": "bool"
        }
      ],
      "stateMutability": "nonpayable",
      "type": "function"
    },
    {
      "inputs": [],
      "name": "name",
      "outputs": [
        {
          "internalType": "string",
          "name": "",
          "type": "string"
        }
      ],
      "stateMutability": "view",
      "type": "function"
    },
    {
      "inputs": [],
      "name": "owner",
      "outputs": [
        {
          "internalType": "address",
          "name": "",
          "type": "address"
        }
      ],
      "stateMutability": "view",
      "type": "function"
    },
    {
      "inputs": [],
      "name": "renounceOwnership",
      "outputs": [],
      "stateMutability": "nonpayable",
      "type": "function"
    },
    {
      "inputs": [],
      "name": "symbol",
      "outputs": [
        {
          "internalType": "string",
          "name": "",
          "type": "string"
        }
      ],
      "stateMutability": "view",
      "type": "function"
    },
    {
      "inputs": [],
      "name": "totalSupply",
      "outputs": [
        {
          "internalType": "uint256",
          "name": "",
          "type": "uint256"
        }
      ],
      "stateMutability": "view",
      "type": "function"
    },
    {
      "inputs": [
        {
          "internalType": "address",
          "name": "to",
          "type": "address"
        },
        {
          "internalType": "uint256",
          "name": "amount",
          "type": "uint256"
        }
      ],
      "name": "transfer",
      "outputs": [
        {
          "internalType": "bool",
          "name": "",
          "type": "bool"
        }
      ],
      "stateMutability": "nonpayable",
      "type": "function"
    },
    {
      "inputs": [
        {
          "internalType": "address",
          "name": "from",
          "type": "address"
        },
        {
          "internalType": "address",
          "name": "to",
          "type": "address"
        },
        {
          "internalType": "uint256",
          "name": "amount",
          "type": "uint256"
        }
      ],
      "name": "transferFrom",
      "outputs": [
        {
          "internalType": "bool",
          "name": "",
          "type": "bool"
        }
      ],
      "stateMutability": "nonpayable",
      "type": "function"
    },
    {
      "inputs": [
        {
          "internalType": "address",
          "name": "newOwner",
          "type": "address"
        }
      ],
      "name": "transferOwnership",
      "outputs": [],
      "stateMutability": "nonpayable",
      "type": "function"
    },
    {
      "inputs": [],
      "name": "decimals",
      "outputs": [
        {
          "internalType": "uint8",
          "name": "",
          "type": "uint8"
        }
      ],
      "stateMutability": "view",
      "type": "function"
    },
    {
      "inputs": [
        {
          "internalType": "uint256",
          "name": "amount",
          "type": "uint256"
        }
      ],
      "name": "burn",
      "outputs": [],
      "stateMutability": "nonpayable",
      "type": "function"
    }
  ],
  "bytecode": "0x60806040523480156200001157600080fd5b50604051620013ec380380620013ec8339810160408190526200003491620003d8565b8451859085906200004d90600390602085019062000287565b5080516200006390600490602084019062000287565b505050620000806200007a620000d260201b60201c565b620000d6565b6005805460ff60a01b1916600160a01b60ff861602179055620000bc81620000aa85600a620005a6565b620000b690856200069e565b62000128565b620000c781620001ea565b505050505062000729565b3390565b600580546001600160a01b038381166001600160a01b0319831681179093556040519116919082907f8be0079c531659141344cd1fd0a4f28419497f9722a3daafe3b4186f6b6457e090600090a35050565b6001600160a01b0382166200015a5760405162461bcd60e51b81526004016200015190620004fe565b60405180910390fd5b62000168600083836200022b565b80600260008282546200017c91906200053e565b90915550506001600160a01b038216600081815260208190526040808220805485019055517fddf252ad1be2c89b69c2b068fc378daa952ba7f163c4a11628f55a4df523b3ef90620001d090859062000535565b60405180910390a3620001e6600083836200022b565b5050565b620001f462000230565b6001600160a01b0381166200021d5760405162461bcd60e51b8152600401620001519062000483565b6200022881620000d6565b50565b505050565b6200023a620000d2565b6001600160a01b03166200024d62000278565b6001600160a01b031614620002765760405162461bcd60e51b81526004016200015190620004c9565b565b6005546001600160a01b031690565b8280546200029590620006c0565b90600052602060002090601f016020900481019282620002b9576000855562000304565b82601f10620002d457805160ff191683800117855562000304565b8280016001018555821562000304579182015b8281111562000304578251825591602001919060010190620002e7565b506200031292915062000316565b5090565b5b8082111562000312576000815560010162000317565b600082601f8301126200033e578081fd5b81516001600160401b03808211156200035b576200035b62000713565b6040516020601f8401601f191682018101838111838210171562000383576200038362000713565b60405283825285840181018710156200039a578485fd5b8492505b83831015620003bd57858301810151828401820152918201916200039e565b83831115620003ce57848185840101525b5095945050505050565b600080600080600060a08688031215620003f0578081fd5b85516001600160401b038082111562000407578283fd5b6200041589838a016200032d565b965060208801519150808211156200042b578283fd5b506200043a888289016200032d565b945050604086015160ff8116811462000451578182fd5b6060870151608088015191945092506001600160a01b038116811462000475578182fd5b809150509295509295909350565b60208082526026908201527f4f776e61626c653a206e6577206f776e657220697320746865207a65726f206160408201526564647265737360d01b606082015260800190565b6020808252818101527f4f776e61626c653a2063616c6c6572206973206e6f7420746865206f776e6572604082015260600190565b6020808252601f908201527f45524332303a206d696e7420746f20746865207a65726f206164647265737300604082015260600190565b90815260200190565b60008219821115620005545762000554620006fd565b500190565b80825b60018086116200056d57506200059d565b818704821115620005825762000582620006fd565b808616156200059057918102915b9490941c9380026200055c565b94509492505050565b6000620005ba60001960ff851684620005c1565b9392505050565b600082620005d257506001620005ba565b81620005e157506000620005ba565b8160018114620005fa5760028114620006055762000639565b6001915050620005ba565b60ff841115620006195762000619620006fd565b6001841b915084821115620006325762000632620006fd565b50620005ba565b5060208310610133831016604e8410600b841016171562000671575081810a838111156200066b576200066b620006fd565b620005ba565b62000680848484600162000559565b808604821115620006955762000695620006fd565b02949350505050565b6000816000190483118215151615620006bb57620006bb620006fd565b500290565b600281046001821680620006d557607f821691505b60208210811415620006f757634e487b7160e01b600052602260045260246000fd5b50919050565b634e487b7160e01b600052601160045260246000fd5b634e487b7160e01b600052604160045260246000fd5b610cb380620007396000396000f3fe608060405234801561001057600080fd5b50600436106100f55760003560e01c806370a0823111610097578063a457c2d711610066578063a457c2d7146101d5578063a9059cbb146101e8578063dd62ed3e146101fb578063f2fde38b1461020e576100f5565b806370a082311461019d578063715018a6146101b05780638da5cb5b146101b857806395d89b41146101cd576100f5565b806323b872dd116100d357806323b872dd1461014d578063313ce56714610160578063395093511461017557806342966c6814610188576100f5565b806306fdde03146100fa578063095ea7b31461011857806318160ddd14610138575b600080fd5b610102610221565b60405161010f91906108e6565b60405180910390f35b61012b610126366004610886565b6102b3565b60405161010f91906108db565b6101406102d5565b60405161010f9190610c07565b61012b61015b36600461084b565b6102db565b610168610309565b60405161010f9190610c10565b61012b610183366004610886565b610319565b61019b6101963660046108af565b610345565b005b6101406101ab3660046107f8565b610359565b61019b610378565b6101c061038c565b60405161010f91906108c7565b61010261039b565b61012b6101e3366004610886565b6103aa565b61012b6101f6366004610886565b6103fb565b610140610209366004610819565b610413565b61019b61021c3660046107f8565b61043e565b60606003805461023090610c42565b80601f016020809104026020016040519081016040528092919081815260200182805461025c90610c42565b80156102a95780601f1061027e576101008083540402835291602001916102a9565b820191906000526020600020905b81548152906001019060200180831161028c57829003601f168201915b5050505050905090565b6000806102be610475565b90506102cb818585610479565b5060019392505050565b60025490565b6000806102e6610475565b90506102f385828561052d565b6102fe858585610577565b506001949350505050565b600554600160a01b900460ff1690565b600080610324610475565b90506102cb8185856103368589610413565b6103409190610c1e565b610479565b610356610350610475565b82610678565b50565b6001600160a01b0381166000908152602081905260409020545b919050565b610380610750565b61038a600061078f565b565b6005546001600160a01b031690565b60606004805461023090610c42565b6000806103b5610475565b905060006103c38286610413565b9050838110156103ee5760405162461bcd60e51b81526004016103e590610bc2565b60405180910390fd5b6102fe8286868403610479565b600080610406610475565b90506102cb818585610577565b6001600160a01b03918216600090815260016020908152604080832093909416825291909152205490565b610446610750565b6001600160a01b03811661046c5760405162461bcd60e51b81526004016103e5906109be565b6103568161078f565b3390565b6001600160a01b03831661049f5760405162461bcd60e51b81526004016103e590610b7e565b6001600160a01b0382166104c55760405162461bcd60e51b81526004016103e590610a04565b6001600160a01b0380841660008181526001602090815260408083209487168084529490915290819020849055517f8c5be1e5ebec7d5bd14f71427d1e84f3dd0314c0f7b2291e5b200ac8c7c3b92590610520908590610c07565b60405180910390a3505050565b60006105398484610413565b9050600019811461057157818110156105645760405162461bcd60e51b81526004016103e590610a46565b6105718484848403610479565b50505050565b6001600160a01b03831661059d5760405162461bcd60e51b81526004016103e590610b39565b6001600160a01b0382166105c35760405162461bcd60e51b81526004016103e590610939565b6105ce83838361074b565b6001600160a01b038316600090815260208190526040902054818110156106075760405162461bcd60e51b81526004016103e590610a7d565b6001600160a01b0380851660008181526020819052604080822086860390559286168082529083902080548601905591517fddf252ad1be2c89b69c2b068fc378daa952ba7f163c4a11628f55a4df523b3ef90610665908690610c07565b60405180910390a361057184848461074b565b6001600160a01b03821661069e5760405162461bcd60e51b81526004016103e590610af8565b6106aa8260008361074b565b6001600160a01b038216600090815260208190526040902054818110156106e35760405162461bcd60e51b81526004016103e59061097c565b6001600160a01b0383166000818152602081905260408082208585039055600280548690039055519091907fddf252ad1be2c89b69c2b068fc378daa952ba7f163c4a11628f55a4df523b3ef9061073b908690610c07565b60405180910390a361074b836000845b505050565b610758610475565b6001600160a01b031661076961038c565b6001600160a01b03161461038a5760405162461bcd60e51b81526004016103e590610ac3565b600580546001600160a01b038381166001600160a01b0319831681179093556040519116919082907f8be0079c531659141344cd1fd0a4f28419497f9722a3daafe3b4186f6b6457e090600090a35050565b80356001600160a01b038116811461037357600080fd5b600060208284031215610809578081fd5b610812826107e1565b9392505050565b6000806040838503121561082b578081fd5b610834836107e1565b9150610842602084016107e1565b90509250929050565b60008060006060848603121561085f578081fd5b610868846107e1565b9250610876602085016107e1565b9150604084013590509250925092565b60008060408385031215610898578182fd5b6108a1836107e1565b946020939093013593505050565b6000602082840312156108c0578081fd5b5035919050565b6001600160a01b0391909116815260200190565b901515815260200190565b6000602080835283518082850152825b81811015610912578581018301518582016040015282016108f6565b818111156109235783604083870101525b50601f01601f1916929092016040019392505050565b60208082526023908201527f45524332303a207472616e7366657220746f20746865207a65726f206164647260408201526265737360e81b606082015260800190565b60208082526022908201527f45524332303a206275726e20616d6f756e7420657863656564732062616c616e604082015261636560f01b606082015260800190565b60208082526026908201527f4f776e61626c653a206e6577206f776e657220697320746865207a65726f206160408201526564647265737360d01b606082015260800190565b60208082526022908201527f45524332303a20617070726f766520746f20746865207a65726f206164647265604082015261737360f01b606082015260800190565b6020808252601d908201527f45524332303a20696e73756666696369656e7420616c6c6f77616e6365000000604082015260600190565b60208082526026908201527f45524332303a207472616e7366657220616d6f756e7420657863656564732062604082015265616c616e636560d01b606082015260800190565b6020808252818101527f4f776e61626c653a2063616c6c6572206973206e6f7420746865206f776e6572604082015260600190565b60208082526021908201527f45524332303a206275726e2066726f6d20746865207a65726f206164647265736040820152607360f81b606082015260800190565b60208082526025908201527f45524332303a207472616e736665722066726f6d20746865207a65726f206164604082015264647265737360d81b606082015260800190565b60208082526024908201527f45524332303a20617070726f76652066726f6d20746865207a65726f206164646040820152637265737360e01b606082015260800190565b60208082526025908201527f45524332303a2064656372656173656420616c6c6f77616e63652062656c6f77604082015264207a65726f60d81b606082015260800190565b90815260200190565b60ff91909116815260200190565b60008219821115610c3d57634e487b7160e01b81526011600452602481fd5b500190565b600281046001821680610c5657607f821691505b60208210811415610c7757634e487b7160e01b600052602260045260246000fd5b5091905056fea2646970667358221220042edde86709a3e9e12d02d77d49a8724877c3776d2ee14b342a0e7a83203e6264736f6c63430008000033",
  "immutableReferences": {},
  "source": "// SPDX-License-Identifier: MIT\r\npragma solidity ^0.8.0;\r\n\r\nimport \"./Address.sol\";\r\nimport \"@openzeppelin/contracts/utils/math/SafeMath.sol\";\r\nimport \"@openzeppelin/contracts/token/ERC20/ERC20.sol\";\r\nimport \"@openzeppelin/contracts/access/Ownable.sol\";\r\n\r\ncontract ERC20Burnable is ERC20, Ownable {\r\n    using Address for address;\r\n    using SafeMath for uint256;\r\n    using SafeMath for uint8;\r\n    using SafeMath for uint;\r\n\r\n    uint8 private __decimals;\r\n\r\n    constructor(\r\n        string memory name,\r\n        string memory symbol,\r\n        uint8 _decimals,\r\n        uint256 supply,\r\n        address owner\r\n    ) ERC20 (name, symbol) {\r\n        __decimals = _decimals;\r\n        _mint(owner, supply * 10**_decimals);\r\n        transferOwnership(owner);\r\n    }\r\n\r\n    function decimals() public view override returns(uint8){\r\n        return __decimals;\r\n    }\r\n\r\n    function burn(uint256 amount) public {\r\n        _burn(_msgSender(), amount);\r\n    }\r\n}",
  "sourcePath": "D:\\newgen\\contracts\\ERC20Burnable.sol",
  "compiler": {
    "name": "solc",
    "version": "0.8.0+commit.c7dfd78e.Emscripten.clang"
  },
  "schemaVersion": "3.4.16",
  "updatedAt": "2024-05-01T14:52:59.389Z",
  "devdoc": {
    "kind": "dev",
    "methods": {
      "allowance(address,address)": {
        "details": "See {IERC20-allowance}."
      },
      "approve(address,uint256)": {
        "details": "See {IERC20-approve}. NOTE: If `amount` is the maximum `uint256`, the allowance is not updated on `transferFrom`. This is semantically equivalent to an infinite approval. Requirements: - `spender` cannot be the zero address."
      },
      "balanceOf(address)": {
        "details": "See {IERC20-balanceOf}."
      },
      "decimals()": {
        "details": "Returns the number of decimals used to get its user representation. For example, if `decimals` equals `2`, a balance of `505` tokens should be displayed to a user as `5.05` (`505 / 10 ** 2`). Tokens usually opt for a value of 18, imitating the relationship between Ether and Wei. This is the default value returned by this function, unless it's overridden. NOTE: This information is only used for _display_ purposes: it in no way affects any of the arithmetic of the contract, including {IERC20-balanceOf} and {IERC20-transfer}."
      },
      "decreaseAllowance(address,uint256)": {
        "details": "Atomically decreases the allowance granted to `spender` by the caller. This is an alternative to {approve} that can be used as a mitigation for problems described in {IERC20-approve}. Emits an {Approval} event indicating the updated allowance. Requirements: - `spender` cannot be the zero address. - `spender` must have allowance for the caller of at least `subtractedValue`."
      },
      "increaseAllowance(address,uint256)": {
        "details": "Atomically increases the allowance granted to `spender` by the caller. This is an alternative to {approve} that can be used as a mitigation for problems described in {IERC20-approve}. Emits an {Approval} event indicating the updated allowance. Requirements: - `spender` cannot be the zero address."
      },
      "name()": {
        "details": "Returns the name of the token."
      },
      "owner()": {
        "details": "Returns the address of the current owner."
      },
      "renounceOwnership()": {
        "details": "Leaves the contract without owner. It will not be possible to call `onlyOwner` functions. Can only be called by the current owner. NOTE: Renouncing ownership will leave the contract without an owner, thereby disabling any functionality that is only available to the owner."
      },
      "symbol()": {
        "details": "Returns the symbol of the token, usually a shorter version of the name."
      },
      "totalSupply()": {
        "details": "See {IERC20-totalSupply}."
      },
      "transfer(address,uint256)": {
        "details": "See {IERC20-transfer}. Requirements: - `to` cannot be the zero address. - the caller must have a balance of at least `amount`."
      },
      "transferFrom(address,address,uint256)": {
        "details": "See {IERC20-transferFrom}. Emits an {Approval} event indicating the updated allowance. This is not required by the EIP. See the note at the beginning of {ERC20}. NOTE: Does not update the allowance if the current allowance is the maximum `uint256`. Requirements: - `from` and `to` cannot be the zero address. - `from` must have a balance of at least `amount`. - the caller must have allowance for ``from``'s tokens of at least `amount`."
      },
      "transferOwnership(address)": {
        "details": "Transfers ownership of the contract to a new account (`newOwner`). Can only be called by the current owner."
      }
    },
    "version": 1
  },
  "userdoc": {
    "kind": "user",
    "methods": {},
    "version": 1
  }
}