{
  "contractName": "MDATokenFactory",
  "abi": [
    {
      "inputs": [
        {
          "internalType": "address",
          "name": "_mda",
          "type": "address"
        }
      ],
      "stateMutability": "nonpayable",
      "type": "constructor"
    },
    {
      "anonymous": false,
      "inputs": [
        {
          "indexed": true,
          "internalType": "address",
          "name": "previousOwner",
          "type": "address"
        },
        {
          "indexed": true,
          "internalType": "address",
          "name": "newOwner",
          "type": "address"
        }
      ],
      "name": "OwnershipTransferred",
      "type": "event"
    },
    {
      "stateMutability": "payable",
      "type": "fallback",
      "payable": true
    },
    {
      "inputs": [],
      "name": "owner",
      "outputs": [
        {
          "internalType": "address",
          "name": "",
          "type": "address"
        }
      ],
      "stateMutability": "view",
      "type": "function",
      "constant": true
    },
    {
      "inputs": [],
      "name": "renounceOwnership",
      "outputs": [],
      "stateMutability": "nonpayable",
      "type": "function"
    },
    {
      "inputs": [
        {
          "internalType": "address",
          "name": "newOwner",
          "type": "address"
        }
      ],
      "name": "transferOwnership",
      "outputs": [],
      "stateMutability": "nonpayable",
      "type": "function"
    },
    {
      "stateMutability": "payable",
      "type": "receive",
      "payable": true
    },
    {
      "inputs": [
        {
          "internalType": "string",
          "name": "name",
          "type": "string"
        },
        {
          "internalType": "string",
          "name": "symbol",
          "type": "string"
        },
        {
          "internalType": "uint256",
          "name": "supply",
          "type": "uint256"
        }
      ],
      "name": "deployFree",
      "outputs": [
        {
          "internalType": "address",
          "name": "",
          "type": "address"
        }
      ],
      "stateMutability": "nonpayable",
      "type": "function"
    },
    {
      "inputs": [
        {
          "internalType": "string",
          "name": "name",
          "type": "string"
        },
        {
          "internalType": "string",
          "name": "symbol",
          "type": "string"
        },
        {
          "internalType": "uint8",
          "name": "decimals",
          "type": "uint8"
        },
        {
          "internalType": "uint256",
          "name": "supply",
          "type": "uint256"
        },
        {
          "internalType": "uint256",
          "name": "tokenType",
          "type": "uint256"
        }
      ],
      "name": "deployPaidBNB",
      "outputs": [
        {
          "internalType": "address",
          "name": "",
          "type": "address"
        }
      ],
      "stateMutability": "payable",
      "type": "function",
      "payable": true
    },
    {
      "inputs": [
        {
          "internalType": "string",
          "name": "name",
          "type": "string"
        },
        {
          "internalType": "string",
          "name": "symbol",
          "type": "string"
        },
        {
          "internalType": "uint8",
          "name": "decimals",
          "type": "uint8"
        },
        {
          "internalType": "uint256",
          "name": "supply",
          "type": "uint256"
        },
        {
          "internalType": "uint256",
          "name": "tokenType",
          "type": "uint256"
        }
      ],
      "name": "deployPaidMDA",
      "outputs": [
        {
          "internalType": "address",
          "name": "",
          "type": "address"
        }
      ],
      "stateMutability": "nonpayable",
      "type": "function"
    },
    {
      "inputs": [],
      "name": "getDeployPriceMDA",
      "outputs": [
        {
          "internalType": "uint256",
          "name": "",
          "type": "uint256"
        }
      ],
      "stateMutability": "view",
      "type": "function",
      "constant": true
    },
    {
      "inputs": [],
      "name": "getDeployPriceBNB",
      "outputs": [
        {
          "internalType": "uint256",
          "name": "",
          "type": "uint256"
        }
      ],
      "stateMutability": "view",
      "type": "function",
      "constant": true
    },
    {
      "inputs": [],
      "name": "getPaidTokenAddress",
      "outputs": [
        {
          "internalType": "address",
          "name": "",
          "type": "address"
        }
      ],
      "stateMutability": "view",
      "type": "function",
      "constant": true
    },
    {
      "inputs": [],
      "name": "getPaidTokenDecimals",
      "outputs": [
        {
          "internalType": "uint8",
          "name": "",
          "type": "uint8"
        }
      ],
      "stateMutability": "view",
      "type": "function",
      "constant": true
    },
    {
      "inputs": [
        {
          "internalType": "uint256",
          "name": "newPrice",
          "type": "uint256"
        }
      ],
      "name": "updateDeployPriceMDA",
      "outputs": [],
      "stateMutability": "nonpayable",
      "type": "function"
    },
    {
      "inputs": [
        {
          "internalType": "uint256",
          "name": "newPrice",
          "type": "uint256"
        }
      ],
      "name": "updateDeployPriceBNB",
      "outputs": [],
      "stateMutability": "nonpayable",
      "type": "function"
    },
    {
      "inputs": [
        {
          "internalType": "address payable",
          "name": "account",
          "type": "address"
        }
      ],
      "name": "withdrawBNB",
      "outputs": [],
      "stateMutability": "nonpayable",
      "type": "function"
    },
    {
      "inputs": [
        {
          "internalType": "address",
          "name": "account",
          "type": "address"
        },
        {
          "internalType": "uint256",
          "name": "amount",
          "type": "uint256"
        }
      ],
      "name": "withdrawToken",
      "outputs": [],
      "stateMutability": "nonpayable",
      "type": "function"
    },
    {
      "inputs": [
        {
          "internalType": "address",
          "name": "account",
          "type": "address"
        }
      ],
      "name": "withdrawTokenAll",
      "outputs": [],
      "stateMutability": "nonpayable",
      "type": "function"
    }
  ],
  "bytecode": "0x608060405267016345785d8a0000600255681e2f26f9f2797eee9060035534801561002957600080fd5b50604051615c1d380380615c1d833981016040819052610048916100d1565b61005861005361007d565b610081565b600180546001600160a01b0319166001600160a01b03929092169190911790556100ff565b3390565b600080546001600160a01b038381166001600160a01b0319831681178455604051919092169283917f8be0079c531659141344cd1fd0a4f28419497f9722a3daafe3b4186f6b6457e09190a35050565b6000602082840312156100e2578081fd5b81516001600160a01b03811681146100f8578182fd5b9392505050565b615b0f8061010e6000396000f3fe608060405260043610620001035760003560e01c80638da5cb5b1162000097578063b9304e1c1162000061578063b9304e1c146200028b578063ed4ee7c014620002a3578063f2fde38b14620002c8578063f8b87e0a14620002ed576200010b565b80638da5cb5b14620002115780639d4303c714620002295780639e281a9814620002415780639f44ad241462000266576200010b565b80635629d25811620000d95780635629d258146200018857806360a3e38014620001ad578063715018a614620001d45780637260947114620001ec576200010b565b8063363089e0146200010d5780633c9833ad146200013c578063426c04e41462000161576200010b565b366200010b57005b005b620001246200011e36600462000bc8565b62000312565b60405162000133919062000cf8565b60405180910390f35b3480156200014957600080fd5b506200010b6200015b36600462000c56565b6200033e565b3480156200016e57600080fd5b50620001796200034d565b60405162000133919062000e7c565b3480156200019557600080fd5b506200010b620001a736600462000ae1565b62000353565b348015620001ba57600080fd5b50620001c56200046f565b60405162000133919062000e85565b348015620001e157600080fd5b506200010b620004f5565b348015620001f957600080fd5b506200010b6200020b36600462000ae1565b6200050d565b3480156200021e57600080fd5b506200012462000589565b3480156200023657600080fd5b506200017962000598565b3480156200024e57600080fd5b506200010b6200026036600462000b07565b6200059e565b3480156200027357600080fd5b50620001246200028536600462000bc8565b6200063c565b3480156200029857600080fd5b506200012462000819565b348015620002b057600080fd5b5062000124620002c236600462000b57565b62000828565b348015620002d557600080fd5b506200010b620002e736600462000ae1565b6200087a565b348015620002fa57600080fd5b506200010b6200030c36600462000c56565b620008c1565b600060025434146200032357600080fd5b620003328686868686620008d0565b90505b95945050505050565b6200034862000986565b600355565b60035490565b6200035d62000986565b6001546040516370a0823160e01b81526001600160a01b039091169063a9059cbb90839083906370a08231906200039990309060040162000cf8565b60206040518083038186803b158015620003b257600080fd5b505afa158015620003c7573d6000803e3d6000fd5b505050506040513d601f19601f82011682018060405250810190620003ed919062000c6f565b6040518363ffffffff1660e01b81526004016200040c92919062000d4a565b602060405180830381600087803b1580156200042757600080fd5b505af11580156200043c573d6000803e3d6000fd5b505050506040513d601f19601f8201168201806040525081019062000462919062000b35565b6200046c57600080fd5b50565b6001546040805163313ce56760e01b815290516000926001600160a01b03169163313ce567916004808301926020929190829003018186803b158015620004b557600080fd5b505afa158015620004ca573d6000803e3d6000fd5b505050506040513d601f19601f82011682018060405250810190620004f0919062000c88565b905090565b620004ff62000986565b6200050b6000620009cc565b565b6200051762000986565b6000816001600160a01b031647604051620005329062000cf5565b60006040518083038185875af1925050503d806000811462000571576040519150601f19603f3d011682016040523d82523d6000602084013e62000576565b606091505b50509050806200058557600080fd5b5050565b6000546001600160a01b031690565b60025490565b620005a862000986565b60015460405163a9059cbb60e01b81526001600160a01b039091169063a9059cbb90620005dc908590859060040162000d4a565b602060405180830381600087803b158015620005f757600080fd5b505af11580156200060c573d6000803e3d6000fd5b505050506040513d601f19601f8201168201806040525081019062000632919062000b35565b6200058557600080fd5b600354600154600091906001600160a01b03166370a082316200065e62000a1c565b6040518263ffffffff1660e01b81526004016200067c919062000cf8565b60206040518083038186803b1580156200069557600080fd5b505afa158015620006aa573d6000803e3d6000fd5b505050506040513d601f19601f82011682018060405250810190620006d0919062000c6f565b1015620006dc57600080fd5b6003546001546001600160a01b031663dd62ed3e620006fa62000a1c565b306040518363ffffffff1660e01b81526004016200071a92919062000d0c565b60206040518083038186803b1580156200073357600080fd5b505afa15801562000748573d6000803e3d6000fd5b505050506040513d601f19601f820116820180604052508101906200076e919062000c6f565b10156200077a57600080fd5b6001546001600160a01b03166323b872dd6200079562000a1c565b306003546040518463ffffffff1660e01b8152600401620007b99392919062000d26565b602060405180830381600087803b158015620007d457600080fd5b505af1158015620007e9573d6000803e3d6000fd5b505050506040513d601f19601f820116820180604052508101906200080f919062000b35565b6200032357600080fd5b6001546001600160a01b031690565b60008383836200083762000a1c565b604051620008459062000a20565b62000854949392919062000d63565b604051809103906000f08015801562000871573d6000803e3d6000fd5b50949350505050565b6200088462000986565b6001600160a01b038116620008b65760405162461bcd60e51b8152600401620008ad9062000e01565b60405180910390fd5b6200046c81620009cc565b620008cb62000986565b600255565b600081600114156200092e5785858585620008ea62000a1c565b604051620008f89062000a2e565b6200090895949392919062000dae565b604051809103906000f08015801562000925573d6000803e3d6000fd5b50905062000335565b81600214156200095457858585856200094662000a1c565b604051620008f89062000a3c565b81600314156200097a57858585856200096c62000a1c565b604051620008f89062000a4a565b50600095945050505050565b6200099062000a1c565b6001600160a01b0316620009a362000589565b6001600160a01b0316146200050b5760405162461bcd60e51b8152600401620008ad9062000e47565b600080546001600160a01b038381166001600160a01b0319831681178455604051919092169283917f8be0079c531659141344cd1fd0a4f28419497f9722a3daafe3b4186f6b6457e09190a35050565b3390565b6110c78062000ed083390190565b61124f8062001f9783390190565b6113ec80620031e683390190565b61150880620045d283390190565b600082601f83011262000a69578081fd5b813567ffffffffffffffff8082111562000a875762000a8762000e93565b604051601f8301601f19168101602001828111828210171562000aae5762000aae62000e93565b60405282815284830160200186101562000ac6578384fd5b82602086016020830137918201602001929092529392505050565b60006020828403121562000af3578081fd5b813562000b008162000ea9565b9392505050565b6000806040838503121562000b1a578081fd5b823562000b278162000ea9565b946020939093013593505050565b60006020828403121562000b47578081fd5b8151801515811462000b00578182fd5b60008060006060848603121562000b6c578081fd5b833567ffffffffffffffff8082111562000b84578283fd5b62000b928783880162000a58565b9450602086013591508082111562000ba8578283fd5b5062000bb78682870162000a58565b925050604084013590509250925092565b600080600080600060a0868803121562000be0578081fd5b853567ffffffffffffffff8082111562000bf8578283fd5b62000c0689838a0162000a58565b9650602088013591508082111562000c1c578283fd5b5062000c2b8882890162000a58565b945050604086013562000c3e8162000ebf565b94979396509394606081013594506080013592915050565b60006020828403121562000c68578081fd5b5035919050565b60006020828403121562000c81578081fd5b5051919050565b60006020828403121562000c9a578081fd5b815162000b008162000ebf565b60008151808452815b8181101562000cce5760208185018101518683018201520162000cb0565b8181111562000ce05782602083870101525b50601f01601f19169290920160200192915050565b90565b6001600160a01b0391909116815260200190565b6001600160a01b0392831681529116602082015260400190565b6001600160a01b039384168152919092166020820152604081019190915260600190565b6001600160a01b03929092168252602082015260400190565b60006080825262000d78608083018762000ca7565b828103602084015262000d8c818762000ca7565b604084019590955250506001600160a01b039190911660609091015292915050565b600060a0825262000dc360a083018862000ca7565b828103602084015262000dd7818862000ca7565b60ff969096166040840152505060608101929092526001600160a01b031660809091015292915050565b60208082526026908201527f4f776e61626c653a206e6577206f776e657220697320746865207a65726f206160408201526564647265737360d01b606082015260800190565b6020808252818101527f4f776e61626c653a2063616c6c6572206973206e6f7420746865206f776e6572604082015260600190565b90815260200190565b60ff91909116815260200190565b634e487b7160e01b600052604160045260246000fd5b6001600160a01b03811681146200046c57600080fd5b60ff811681146200046c57600080fdfe60806040523480156200001157600080fd5b50604051620010c7380380620010c78339810160408190526200003491620003ba565b8351849084906200004d90600390602085019062000269565b5080516200006390600490602084019062000269565b505050620000806200007a620000b460201b60201c565b620000b8565b6200009f816200009984670de0b6b3a764000062000521565b6200010a565b620000aa81620001cc565b50505050620005ac565b3390565b600580546001600160a01b038381166001600160a01b0319831681179093556040519116919082907f8be0079c531659141344cd1fd0a4f28419497f9722a3daafe3b4186f6b6457e090600090a35050565b6001600160a01b0382166200013c5760405162461bcd60e51b81526004016200013390620004c6565b60405180910390fd5b6200014a600083836200020d565b80600260008282546200015e919062000506565b90915550506001600160a01b038216600081815260208190526040808220805485019055517fddf252ad1be2c89b69c2b068fc378daa952ba7f163c4a11628f55a4df523b3ef90620001b2908590620004fd565b60405180910390a3620001c8600083836200020d565b5050565b620001d662000212565b6001600160a01b038116620001ff5760405162461bcd60e51b815260040162000133906200044b565b6200020a81620000b8565b50565b505050565b6200021c620000b4565b6001600160a01b03166200022f6200025a565b6001600160a01b031614620002585760405162461bcd60e51b8152600401620001339062000491565b565b6005546001600160a01b031690565b828054620002779062000543565b90600052602060002090601f0160209004810192826200029b5760008555620002e6565b82601f10620002b657805160ff1916838001178555620002e6565b82800160010185558215620002e6579182015b82811115620002e6578251825591602001919060010190620002c9565b50620002f4929150620002f8565b5090565b5b80821115620002f45760008155600101620002f9565b600082601f83011262000320578081fd5b81516001600160401b03808211156200033d576200033d62000596565b6040516020601f8401601f191682018101838111838210171562000365576200036562000596565b60405283825285840181018710156200037c578485fd5b8492505b838310156200039f578583018101518284018201529182019162000380565b83831115620003b057848185840101525b5095945050505050565b60008060008060808587031215620003d0578384fd5b84516001600160401b0380821115620003e7578586fd5b620003f5888389016200030f565b955060208701519150808211156200040b578485fd5b506200041a878288016200030f565b60408701516060880151919550935090506001600160a01b038116811462000440578182fd5b939692955090935050565b60208082526026908201527f4f776e61626c653a206e6577206f776e657220697320746865207a65726f206160408201526564647265737360d01b606082015260800190565b6020808252818101527f4f776e61626c653a2063616c6c6572206973206e6f7420746865206f776e6572604082015260600190565b6020808252601f908201527f45524332303a206d696e7420746f20746865207a65726f206164647265737300604082015260600190565b90815260200190565b600082198211156200051c576200051c62000580565b500190565b60008160001904831182151516156200053e576200053e62000580565b500290565b6002810460018216806200055857607f821691505b602082108114156200057a57634e487b7160e01b600052602260045260246000fd5b50919050565b634e487b7160e01b600052601160045260246000fd5b634e487b7160e01b600052604160045260246000fd5b610b0b80620005bc6000396000f3fe608060405234801561001057600080fd5b50600436106100ea5760003560e01c8063715018a61161008c578063a457c2d711610066578063a457c2d7146101b7578063a9059cbb146101ca578063dd62ed3e146101dd578063f2fde38b146101f0576100ea565b8063715018a6146101905780638da5cb5b1461019a57806395d89b41146101af576100ea565b806323b872dd116100c857806323b872dd14610142578063313ce56714610155578063395093511461016a57806370a082311461017d576100ea565b806306fdde03146100ef578063095ea7b31461010d57806318160ddd1461012d575b600080fd5b6100f7610203565b60405161010491906107c1565b60405180910390f35b61012061011b366004610779565b610295565b60405161010491906107b6565b6101356102b7565b6040516101049190610a5f565b61012061015036600461073e565b6102bd565b61015d6102eb565b6040516101049190610a68565b610120610178366004610779565b6102f0565b61013561018b3660046106eb565b61031c565b61019861033b565b005b6101a261034f565b60405161010491906107a2565b6100f761035e565b6101206101c5366004610779565b61036d565b6101206101d8366004610779565b6103be565b6101356101eb36600461070c565b6103d6565b6101986101fe3660046106eb565b610401565b60606003805461021290610a9a565b80601f016020809104026020016040519081016040528092919081815260200182805461023e90610a9a565b801561028b5780601f106102605761010080835404028352916020019161028b565b820191906000526020600020905b81548152906001019060200180831161026e57829003601f168201915b5050505050905090565b6000806102a061043b565b90506102ad81858561043f565b5060019392505050565b60025490565b6000806102c861043b565b90506102d58582856104f3565b6102e085858561053d565b506001949350505050565b601290565b6000806102fb61043b565b90506102ad81858561030d85896103d6565b6103179190610a76565b61043f565b6001600160a01b0381166000908152602081905260409020545b919050565b61034361063e565b61034d600061067d565b565b6005546001600160a01b031690565b60606004805461021290610a9a565b60008061037861043b565b9050600061038682866103d6565b9050838110156103b15760405162461bcd60e51b81526004016103a890610a1a565b60405180910390fd5b6102e0828686840361043f565b6000806103c961043b565b90506102ad81858561053d565b6001600160a01b03918216600090815260016020908152604080832093909416825291909152205490565b61040961063e565b6001600160a01b03811661042f5760405162461bcd60e51b81526004016103a890610857565b6104388161067d565b50565b3390565b6001600160a01b0383166104655760405162461bcd60e51b81526004016103a8906109d6565b6001600160a01b03821661048b5760405162461bcd60e51b81526004016103a89061089d565b6001600160a01b0380841660008181526001602090815260408083209487168084529490915290819020849055517f8c5be1e5ebec7d5bd14f71427d1e84f3dd0314c0f7b2291e5b200ac8c7c3b925906104e6908590610a5f565b60405180910390a3505050565b60006104ff84846103d6565b90506000198114610537578181101561052a5760405162461bcd60e51b81526004016103a8906108df565b610537848484840361043f565b50505050565b6001600160a01b0383166105635760405162461bcd60e51b81526004016103a890610991565b6001600160a01b0382166105895760405162461bcd60e51b81526004016103a890610814565b6105948383836106cf565b6001600160a01b038316600090815260208190526040902054818110156105cd5760405162461bcd60e51b81526004016103a890610916565b6001600160a01b0380851660008181526020819052604080822086860390559286168082529083902080548601905591517fddf252ad1be2c89b69c2b068fc378daa952ba7f163c4a11628f55a4df523b3ef9061062b908690610a5f565b60405180910390a36105378484846106cf565b61064661043b565b6001600160a01b031661065761034f565b6001600160a01b03161461034d5760405162461bcd60e51b81526004016103a89061095c565b600580546001600160a01b038381166001600160a01b0319831681179093556040519116919082907f8be0079c531659141344cd1fd0a4f28419497f9722a3daafe3b4186f6b6457e090600090a35050565b505050565b80356001600160a01b038116811461033657600080fd5b6000602082840312156106fc578081fd5b610705826106d4565b9392505050565b6000806040838503121561071e578081fd5b610727836106d4565b9150610735602084016106d4565b90509250929050565b600080600060608486031215610752578081fd5b61075b846106d4565b9250610769602085016106d4565b9150604084013590509250925092565b6000806040838503121561078b578182fd5b610794836106d4565b946020939093013593505050565b6001600160a01b0391909116815260200190565b901515815260200190565b6000602080835283518082850152825b818110156107ed578581018301518582016040015282016107d1565b818111156107fe5783604083870101525b50601f01601f1916929092016040019392505050565b60208082526023908201527f45524332303a207472616e7366657220746f20746865207a65726f206164647260408201526265737360e81b606082015260800190565b60208082526026908201527f4f776e61626c653a206e6577206f776e657220697320746865207a65726f206160408201526564647265737360d01b606082015260800190565b60208082526022908201527f45524332303a20617070726f766520746f20746865207a65726f206164647265604082015261737360f01b606082015260800190565b6020808252601d908201527f45524332303a20696e73756666696369656e7420616c6c6f77616e6365000000604082015260600190565b60208082526026908201527f45524332303a207472616e7366657220616d6f756e7420657863656564732062604082015265616c616e636560d01b606082015260800190565b6020808252818101527f4f776e61626c653a2063616c6c6572206973206e6f7420746865206f776e6572604082015260600190565b60208082526025908201527f45524332303a207472616e736665722066726f6d20746865207a65726f206164604082015264647265737360d81b606082015260800190565b60208082526024908201527f45524332303a20617070726f76652066726f6d20746865207a65726f206164646040820152637265737360e01b606082015260800190565b60208082526025908201527f45524332303a2064656372656173656420616c6c6f77616e63652062656c6f77604082015264207a65726f60d81b606082015260800190565b90815260200190565b60ff91909116815260200190565b60008219821115610a9557634e487b7160e01b81526011600452602481fd5b500190565b600281046001821680610aae57607f821691505b60208210811415610acf57634e487b7160e01b600052602260045260246000fd5b5091905056fea26469706673582212205a7e6c7c7dcc2d515837c8e038157e5979bc71dd1553b360a3ada328c65bf54864736f6c6343000800003360806040523480156200001157600080fd5b506040516200124f3803806200124f8339810160408190526200003491620003d8565b8451859085906200004d90600390602085019062000287565b5080516200006390600490602084019062000287565b505050620000806200007a620000d260201b60201c565b620000d6565b6005805460ff60a01b1916600160a01b60ff861602179055620000bc81620000aa85600a620005a6565b620000b690856200069e565b62000128565b620000c781620001ea565b505050505062000729565b3390565b600580546001600160a01b038381166001600160a01b0319831681179093556040519116919082907f8be0079c531659141344cd1fd0a4f28419497f9722a3daafe3b4186f6b6457e090600090a35050565b6001600160a01b0382166200015a5760405162461bcd60e51b81526004016200015190620004fe565b60405180910390fd5b62000168600083836200022b565b80600260008282546200017c91906200053e565b90915550506001600160a01b038216600081815260208190526040808220805485019055517fddf252ad1be2c89b69c2b068fc378daa952ba7f163c4a11628f55a4df523b3ef90620001d090859062000535565b60405180910390a3620001e6600083836200022b565b5050565b620001f462000230565b6001600160a01b0381166200021d5760405162461bcd60e51b8152600401620001519062000483565b6200022881620000d6565b50565b505050565b6200023a620000d2565b6001600160a01b03166200024d62000278565b6001600160a01b031614620002765760405162461bcd60e51b81526004016200015190620004c9565b565b6005546001600160a01b031690565b8280546200029590620006c0565b90600052602060002090601f016020900481019282620002b9576000855562000304565b82601f10620002d457805160ff191683800117855562000304565b8280016001018555821562000304579182015b8281111562000304578251825591602001919060010190620002e7565b506200031292915062000316565b5090565b5b8082111562000312576000815560010162000317565b600082601f8301126200033e578081fd5b81516001600160401b03808211156200035b576200035b62000713565b6040516020601f8401601f191682018101838111838210171562000383576200038362000713565b60405283825285840181018710156200039a578485fd5b8492505b83831015620003bd57858301810151828401820152918201916200039e565b83831115620003ce57848185840101525b5095945050505050565b600080600080600060a08688031215620003f0578081fd5b85516001600160401b038082111562000407578283fd5b6200041589838a016200032d565b965060208801519150808211156200042b578283fd5b506200043a888289016200032d565b945050604086015160ff8116811462000451578182fd5b6060870151608088015191945092506001600160a01b038116811462000475578182fd5b809150509295509295909350565b60208082526026908201527f4f776e61626c653a206e6577206f776e657220697320746865207a65726f206160408201526564647265737360d01b606082015260800190565b6020808252818101527f4f776e61626c653a2063616c6c6572206973206e6f7420746865206f776e6572604082015260600190565b6020808252601f908201527f45524332303a206d696e7420746f20746865207a65726f206164647265737300604082015260600190565b90815260200190565b60008219821115620005545762000554620006fd565b500190565b80825b60018086116200056d57506200059d565b818704821115620005825762000582620006fd565b808616156200059057918102915b9490941c9380026200055c565b94509492505050565b6000620005ba60001960ff851684620005c1565b9392505050565b600082620005d257506001620005ba565b81620005e157506000620005ba565b8160018114620005fa5760028114620006055762000639565b6001915050620005ba565b60ff841115620006195762000619620006fd565b6001841b915084821115620006325762000632620006fd565b50620005ba565b5060208310610133831016604e8410600b841016171562000671575081810a838111156200066b576200066b620006fd565b620005ba565b62000680848484600162000559565b808604821115620006955762000695620006fd565b02949350505050565b6000816000190483118215151615620006bb57620006bb620006fd565b500290565b600281046001821680620006d557607f821691505b60208210811415620006f757634e487b7160e01b600052602260045260246000fd5b50919050565b634e487b7160e01b600052601160045260246000fd5b634e487b7160e01b600052604160045260246000fd5b610b1680620007396000396000f3fe608060405234801561001057600080fd5b50600436106100ea5760003560e01c8063715018a61161008c578063a457c2d711610066578063a457c2d7146101b7578063a9059cbb146101ca578063dd62ed3e146101dd578063f2fde38b146101f0576100ea565b8063715018a6146101905780638da5cb5b1461019a57806395d89b41146101af576100ea565b806323b872dd116100c857806323b872dd14610142578063313ce56714610155578063395093511461016a57806370a082311461017d576100ea565b806306fdde03146100ef578063095ea7b31461010d57806318160ddd1461012d575b600080fd5b6100f7610203565b60405161010491906107cc565b60405180910390f35b61012061011b366004610784565b610295565b60405161010491906107c1565b6101356102b7565b6040516101049190610a6a565b610120610150366004610749565b6102bd565b61015d6102eb565b6040516101049190610a73565b610120610178366004610784565b6102fb565b61013561018b3660046106f6565b610327565b610198610346565b005b6101a261035a565b60405161010491906107ad565b6100f7610369565b6101206101c5366004610784565b610378565b6101206101d8366004610784565b6103c9565b6101356101eb366004610717565b6103e1565b6101986101fe3660046106f6565b61040c565b60606003805461021290610aa5565b80601f016020809104026020016040519081016040528092919081815260200182805461023e90610aa5565b801561028b5780601f106102605761010080835404028352916020019161028b565b820191906000526020600020905b81548152906001019060200180831161026e57829003601f168201915b5050505050905090565b6000806102a0610446565b90506102ad81858561044a565b5060019392505050565b60025490565b6000806102c8610446565b90506102d58582856104fe565b6102e0858585610548565b506001949350505050565b600554600160a01b900460ff1690565b600080610306610446565b90506102ad81858561031885896103e1565b6103229190610a81565b61044a565b6001600160a01b0381166000908152602081905260409020545b919050565b61034e610649565b6103586000610688565b565b6005546001600160a01b031690565b60606004805461021290610aa5565b600080610383610446565b9050600061039182866103e1565b9050838110156103bc5760405162461bcd60e51b81526004016103b390610a25565b60405180910390fd5b6102e0828686840361044a565b6000806103d4610446565b90506102ad818585610548565b6001600160a01b03918216600090815260016020908152604080832093909416825291909152205490565b610414610649565b6001600160a01b03811661043a5760405162461bcd60e51b81526004016103b390610862565b61044381610688565b50565b3390565b6001600160a01b0383166104705760405162461bcd60e51b81526004016103b3906109e1565b6001600160a01b0382166104965760405162461bcd60e51b81526004016103b3906108a8565b6001600160a01b0380841660008181526001602090815260408083209487168084529490915290819020849055517f8c5be1e5ebec7d5bd14f71427d1e84f3dd0314c0f7b2291e5b200ac8c7c3b925906104f1908590610a6a565b60405180910390a3505050565b600061050a84846103e1565b9050600019811461054257818110156105355760405162461bcd60e51b81526004016103b3906108ea565b610542848484840361044a565b50505050565b6001600160a01b03831661056e5760405162461bcd60e51b81526004016103b39061099c565b6001600160a01b0382166105945760405162461bcd60e51b81526004016103b39061081f565b61059f8383836106da565b6001600160a01b038316600090815260208190526040902054818110156105d85760405162461bcd60e51b81526004016103b390610921565b6001600160a01b0380851660008181526020819052604080822086860390559286168082529083902080548601905591517fddf252ad1be2c89b69c2b068fc378daa952ba7f163c4a11628f55a4df523b3ef90610636908690610a6a565b60405180910390a36105428484846106da565b610651610446565b6001600160a01b031661066261035a565b6001600160a01b0316146103585760405162461bcd60e51b81526004016103b390610967565b600580546001600160a01b038381166001600160a01b0319831681179093556040519116919082907f8be0079c531659141344cd1fd0a4f28419497f9722a3daafe3b4186f6b6457e090600090a35050565b505050565b80356001600160a01b038116811461034157600080fd5b600060208284031215610707578081fd5b610710826106df565b9392505050565b60008060408385031215610729578081fd5b610732836106df565b9150610740602084016106df565b90509250929050565b60008060006060848603121561075d578081fd5b610766846106df565b9250610774602085016106df565b9150604084013590509250925092565b60008060408385031215610796578182fd5b61079f836106df565b946020939093013593505050565b6001600160a01b0391909116815260200190565b901515815260200190565b6000602080835283518082850152825b818110156107f8578581018301518582016040015282016107dc565b818111156108095783604083870101525b50601f01601f1916929092016040019392505050565b60208082526023908201527f45524332303a207472616e7366657220746f20746865207a65726f206164647260408201526265737360e81b606082015260800190565b60208082526026908201527f4f776e61626c653a206e6577206f776e657220697320746865207a65726f206160408201526564647265737360d01b606082015260800190565b60208082526022908201527f45524332303a20617070726f766520746f20746865207a65726f206164647265604082015261737360f01b606082015260800190565b6020808252601d908201527f45524332303a20696e73756666696369656e7420616c6c6f77616e6365000000604082015260600190565b60208082526026908201527f45524332303a207472616e7366657220616d6f756e7420657863656564732062604082015265616c616e636560d01b606082015260800190565b6020808252818101527f4f776e61626c653a2063616c6c6572206973206e6f7420746865206f776e6572604082015260600190565b60208082526025908201527f45524332303a207472616e736665722066726f6d20746865207a65726f206164604082015264647265737360d81b606082015260800190565b60208082526024908201527f45524332303a20617070726f76652066726f6d20746865207a65726f206164646040820152637265737360e01b606082015260800190565b60208082526025908201527f45524332303a2064656372656173656420616c6c6f77616e63652062656c6f77604082015264207a65726f60d81b606082015260800190565b90815260200190565b60ff91909116815260200190565b60008219821115610aa057634e487b7160e01b81526011600452602481fd5b500190565b600281046001821680610ab957607f821691505b60208210811415610ada57634e487b7160e01b600052602260045260246000fd5b5091905056fea26469706673582212209c1f0f351af61ed5c9316abbb5538a3b38cd739b690ee1c3f1bafd6c9cecaa6464736f6c6343000800003360806040523480156200001157600080fd5b50604051620013ec380380620013ec8339810160408190526200003491620003d8565b8451859085906200004d90600390602085019062000287565b5080516200006390600490602084019062000287565b505050620000806200007a620000d260201b60201c565b620000d6565b6005805460ff60a01b1916600160a01b60ff861602179055620000bc81620000aa85600a620005a6565b620000b690856200069e565b62000128565b620000c781620001ea565b505050505062000729565b3390565b600580546001600160a01b038381166001600160a01b0319831681179093556040519116919082907f8be0079c531659141344cd1fd0a4f28419497f9722a3daafe3b4186f6b6457e090600090a35050565b6001600160a01b0382166200015a5760405162461bcd60e51b81526004016200015190620004fe565b60405180910390fd5b62000168600083836200022b565b80600260008282546200017c91906200053e565b90915550506001600160a01b038216600081815260208190526040808220805485019055517fddf252ad1be2c89b69c2b068fc378daa952ba7f163c4a11628f55a4df523b3ef90620001d090859062000535565b60405180910390a3620001e6600083836200022b565b5050565b620001f462000230565b6001600160a01b0381166200021d5760405162461bcd60e51b8152600401620001519062000483565b6200022881620000d6565b50565b505050565b6200023a620000d2565b6001600160a01b03166200024d62000278565b6001600160a01b031614620002765760405162461bcd60e51b81526004016200015190620004c9565b565b6005546001600160a01b031690565b8280546200029590620006c0565b90600052602060002090601f016020900481019282620002b9576000855562000304565b82601f10620002d457805160ff191683800117855562000304565b8280016001018555821562000304579182015b8281111562000304578251825591602001919060010190620002e7565b506200031292915062000316565b5090565b5b8082111562000312576000815560010162000317565b600082601f8301126200033e578081fd5b81516001600160401b03808211156200035b576200035b62000713565b6040516020601f8401601f191682018101838111838210171562000383576200038362000713565b60405283825285840181018710156200039a578485fd5b8492505b83831015620003bd57858301810151828401820152918201916200039e565b83831115620003ce57848185840101525b5095945050505050565b600080600080600060a08688031215620003f0578081fd5b85516001600160401b038082111562000407578283fd5b6200041589838a016200032d565b965060208801519150808211156200042b578283fd5b506200043a888289016200032d565b945050604086015160ff8116811462000451578182fd5b6060870151608088015191945092506001600160a01b038116811462000475578182fd5b809150509295509295909350565b60208082526026908201527f4f776e61626c653a206e6577206f776e657220697320746865207a65726f206160408201526564647265737360d01b606082015260800190565b6020808252818101527f4f776e61626c653a2063616c6c6572206973206e6f7420746865206f776e6572604082015260600190565b6020808252601f908201527f45524332303a206d696e7420746f20746865207a65726f206164647265737300604082015260600190565b90815260200190565b60008219821115620005545762000554620006fd565b500190565b80825b60018086116200056d57506200059d565b818704821115620005825762000582620006fd565b808616156200059057918102915b9490941c9380026200055c565b94509492505050565b6000620005ba60001960ff851684620005c1565b9392505050565b600082620005d257506001620005ba565b81620005e157506000620005ba565b8160018114620005fa5760028114620006055762000639565b6001915050620005ba565b60ff841115620006195762000619620006fd565b6001841b915084821115620006325762000632620006fd565b50620005ba565b5060208310610133831016604e8410600b841016171562000671575081810a838111156200066b576200066b620006fd565b620005ba565b62000680848484600162000559565b808604821115620006955762000695620006fd565b02949350505050565b6000816000190483118215151615620006bb57620006bb620006fd565b500290565b600281046001821680620006d557607f821691505b60208210811415620006f757634e487b7160e01b600052602260045260246000fd5b50919050565b634e487b7160e01b600052601160045260246000fd5b634e487b7160e01b600052604160045260246000fd5b610cb380620007396000396000f3fe608060405234801561001057600080fd5b50600436106100f55760003560e01c806370a0823111610097578063a457c2d711610066578063a457c2d7146101d5578063a9059cbb146101e8578063dd62ed3e146101fb578063f2fde38b1461020e576100f5565b806370a082311461019d578063715018a6146101b05780638da5cb5b146101b857806395d89b41146101cd576100f5565b806323b872dd116100d357806323b872dd1461014d578063313ce56714610160578063395093511461017557806342966c6814610188576100f5565b806306fdde03146100fa578063095ea7b31461011857806318160ddd14610138575b600080fd5b610102610221565b60405161010f91906108e6565b60405180910390f35b61012b610126366004610886565b6102b3565b60405161010f91906108db565b6101406102d5565b60405161010f9190610c07565b61012b61015b36600461084b565b6102db565b610168610309565b60405161010f9190610c10565b61012b610183366004610886565b610319565b61019b6101963660046108af565b610345565b005b6101406101ab3660046107f8565b610359565b61019b610378565b6101c061038c565b60405161010f91906108c7565b61010261039b565b61012b6101e3366004610886565b6103aa565b61012b6101f6366004610886565b6103fb565b610140610209366004610819565b610413565b61019b61021c3660046107f8565b61043e565b60606003805461023090610c42565b80601f016020809104026020016040519081016040528092919081815260200182805461025c90610c42565b80156102a95780601f1061027e576101008083540402835291602001916102a9565b820191906000526020600020905b81548152906001019060200180831161028c57829003601f168201915b5050505050905090565b6000806102be610475565b90506102cb818585610479565b5060019392505050565b60025490565b6000806102e6610475565b90506102f385828561052d565b6102fe858585610577565b506001949350505050565b600554600160a01b900460ff1690565b600080610324610475565b90506102cb8185856103368589610413565b6103409190610c1e565b610479565b610356610350610475565b82610678565b50565b6001600160a01b0381166000908152602081905260409020545b919050565b610380610750565b61038a600061078f565b565b6005546001600160a01b031690565b60606004805461023090610c42565b6000806103b5610475565b905060006103c38286610413565b9050838110156103ee5760405162461bcd60e51b81526004016103e590610bc2565b60405180910390fd5b6102fe8286868403610479565b600080610406610475565b90506102cb818585610577565b6001600160a01b03918216600090815260016020908152604080832093909416825291909152205490565b610446610750565b6001600160a01b03811661046c5760405162461bcd60e51b81526004016103e5906109be565b6103568161078f565b3390565b6001600160a01b03831661049f5760405162461bcd60e51b81526004016103e590610b7e565b6001600160a01b0382166104c55760405162461bcd60e51b81526004016103e590610a04565b6001600160a01b0380841660008181526001602090815260408083209487168084529490915290819020849055517f8c5be1e5ebec7d5bd14f71427d1e84f3dd0314c0f7b2291e5b200ac8c7c3b92590610520908590610c07565b60405180910390a3505050565b60006105398484610413565b9050600019811461057157818110156105645760405162461bcd60e51b81526004016103e590610a46565b6105718484848403610479565b50505050565b6001600160a01b03831661059d5760405162461bcd60e51b81526004016103e590610b39565b6001600160a01b0382166105c35760405162461bcd60e51b81526004016103e590610939565b6105ce83838361074b565b6001600160a01b038316600090815260208190526040902054818110156106075760405162461bcd60e51b81526004016103e590610a7d565b6001600160a01b0380851660008181526020819052604080822086860390559286168082529083902080548601905591517fddf252ad1be2c89b69c2b068fc378daa952ba7f163c4a11628f55a4df523b3ef90610665908690610c07565b60405180910390a361057184848461074b565b6001600160a01b03821661069e5760405162461bcd60e51b81526004016103e590610af8565b6106aa8260008361074b565b6001600160a01b038216600090815260208190526040902054818110156106e35760405162461bcd60e51b81526004016103e59061097c565b6001600160a01b0383166000818152602081905260408082208585039055600280548690039055519091907fddf252ad1be2c89b69c2b068fc378daa952ba7f163c4a11628f55a4df523b3ef9061073b908690610c07565b60405180910390a361074b836000845b505050565b610758610475565b6001600160a01b031661076961038c565b6001600160a01b03161461038a5760405162461bcd60e51b81526004016103e590610ac3565b600580546001600160a01b038381166001600160a01b0319831681179093556040519116919082907f8be0079c531659141344cd1fd0a4f28419497f9722a3daafe3b4186f6b6457e090600090a35050565b80356001600160a01b038116811461037357600080fd5b600060208284031215610809578081fd5b610812826107e1565b9392505050565b6000806040838503121561082b578081fd5b610834836107e1565b9150610842602084016107e1565b90509250929050565b60008060006060848603121561085f578081fd5b610868846107e1565b9250610876602085016107e1565b9150604084013590509250925092565b60008060408385031215610898578182fd5b6108a1836107e1565b946020939093013593505050565b6000602082840312156108c0578081fd5b5035919050565b6001600160a01b0391909116815260200190565b901515815260200190565b6000602080835283518082850152825b81811015610912578581018301518582016040015282016108f6565b818111156109235783604083870101525b50601f01601f1916929092016040019392505050565b60208082526023908201527f45524332303a207472616e7366657220746f20746865207a65726f206164647260408201526265737360e81b606082015260800190565b60208082526022908201527f45524332303a206275726e20616d6f756e7420657863656564732062616c616e604082015261636560f01b606082015260800190565b60208082526026908201527f4f776e61626c653a206e6577206f776e657220697320746865207a65726f206160408201526564647265737360d01b606082015260800190565b60208082526022908201527f45524332303a20617070726f766520746f20746865207a65726f206164647265604082015261737360f01b606082015260800190565b6020808252601d908201527f45524332303a20696e73756666696369656e7420616c6c6f77616e6365000000604082015260600190565b60208082526026908201527f45524332303a207472616e7366657220616d6f756e7420657863656564732062604082015265616c616e636560d01b606082015260800190565b6020808252818101527f4f776e61626c653a2063616c6c6572206973206e6f7420746865206f776e6572604082015260600190565b60208082526021908201527f45524332303a206275726e2066726f6d20746865207a65726f206164647265736040820152607360f81b606082015260800190565b60208082526025908201527f45524332303a207472616e736665722066726f6d20746865207a65726f206164604082015264647265737360d81b606082015260800190565b60208082526024908201527f45524332303a20617070726f76652066726f6d20746865207a65726f206164646040820152637265737360e01b606082015260800190565b60208082526025908201527f45524332303a2064656372656173656420616c6c6f77616e63652062656c6f77604082015264207a65726f60d81b606082015260800190565b90815260200190565b60ff91909116815260200190565b60008219821115610c3d57634e487b7160e01b81526011600452602481fd5b500190565b600281046001821680610c5657607f821691505b60208210811415610c7757634e487b7160e01b600052602260045260246000fd5b5091905056fea2646970667358221220042edde86709a3e9e12d02d77d49a8724877c3776d2ee14b342a0e7a83203e6264736f6c6343000800003360806040523480156200001157600080fd5b5060405162001508380380620015088339810160408190526200003491620003d8565b8451859085906200004d90600390602085019062000287565b5080516200006390600490602084019062000287565b505050620000806200007a620000d260201b60201c565b620000d6565b6005805460ff60a01b1916600160a01b60ff861602179055620000bc81620000aa85600a620005a6565b620000b690856200069e565b62000128565b620000c781620001ea565b505050505062000729565b3390565b600580546001600160a01b038381166001600160a01b0319831681179093556040519116919082907f8be0079c531659141344cd1fd0a4f28419497f9722a3daafe3b4186f6b6457e090600090a35050565b6001600160a01b0382166200015a5760405162461bcd60e51b81526004016200015190620004fe565b60405180910390fd5b62000168600083836200022b565b80600260008282546200017c91906200053e565b90915550506001600160a01b038216600081815260208190526040808220805485019055517fddf252ad1be2c89b69c2b068fc378daa952ba7f163c4a11628f55a4df523b3ef90620001d090859062000535565b60405180910390a3620001e6600083836200022b565b5050565b620001f462000230565b6001600160a01b0381166200021d5760405162461bcd60e51b8152600401620001519062000483565b6200022881620000d6565b50565b505050565b6200023a620000d2565b6001600160a01b03166200024d62000278565b6001600160a01b031614620002765760405162461bcd60e51b81526004016200015190620004c9565b565b6005546001600160a01b031690565b8280546200029590620006c0565b90600052602060002090601f016020900481019282620002b9576000855562000304565b82601f10620002d457805160ff191683800117855562000304565b8280016001018555821562000304579182015b8281111562000304578251825591602001919060010190620002e7565b506200031292915062000316565b5090565b5b8082111562000312576000815560010162000317565b600082601f8301126200033e578081fd5b81516001600160401b03808211156200035b576200035b62000713565b6040516020601f8401601f191682018101838111838210171562000383576200038362000713565b60405283825285840181018710156200039a578485fd5b8492505b83831015620003bd57858301810151828401820152918201916200039e565b83831115620003ce57848185840101525b5095945050505050565b600080600080600060a08688031215620003f0578081fd5b85516001600160401b038082111562000407578283fd5b6200041589838a016200032d565b965060208801519150808211156200042b578283fd5b506200043a888289016200032d565b945050604086015160ff8116811462000451578182fd5b6060870151608088015191945092506001600160a01b038116811462000475578182fd5b809150509295509295909350565b60208082526026908201527f4f776e61626c653a206e6577206f776e657220697320746865207a65726f206160408201526564647265737360d01b606082015260800190565b6020808252818101527f4f776e61626c653a2063616c6c6572206973206e6f7420746865206f776e6572604082015260600190565b6020808252601f908201527f45524332303a206d696e7420746f20746865207a65726f206164647265737300604082015260600190565b90815260200190565b60008219821115620005545762000554620006fd565b500190565b80825b60018086116200056d57506200059d565b818704821115620005825762000582620006fd565b808616156200059057918102915b9490941c9380026200055c565b94509492505050565b6000620005ba60001960ff851684620005c1565b9392505050565b600082620005d257506001620005ba565b81620005e157506000620005ba565b8160018114620005fa5760028114620006055762000639565b6001915050620005ba565b60ff841115620006195762000619620006fd565b6001841b915084821115620006325762000632620006fd565b50620005ba565b5060208310610133831016604e8410600b841016171562000671575081810a838111156200066b576200066b620006fd565b620005ba565b62000680848484600162000559565b808604821115620006955762000695620006fd565b02949350505050565b6000816000190483118215151615620006bb57620006bb620006fd565b500290565b600281046001821680620006d557607f821691505b60208210811415620006f757634e487b7160e01b600052602260045260246000fd5b50919050565b634e487b7160e01b600052601160045260246000fd5b634e487b7160e01b600052604160045260246000fd5b610dcf80620007396000396000f3fe608060405234801561001057600080fd5b50600436106101005760003560e01c8063715018a611610097578063a457c2d711610066578063a457c2d7146101f3578063a9059cbb14610206578063dd62ed3e14610219578063f2fde38b1461022c57610100565b8063715018a6146101bb5780638da5cb5b146101c357806395d89b41146101d8578063a0712d68146101e057610100565b8063313ce567116100d3578063313ce5671461016b578063395093511461018057806342966c681461019357806370a08231146101a857610100565b806306fdde0314610105578063095ea7b31461012357806318160ddd1461014357806323b872dd14610158575b600080fd5b61010d61023f565b60405161011a91906109cb565b60405180910390f35b61013661013136600461096b565b6102d1565b60405161011a91906109c0565b61014b6102f3565b60405161011a9190610d23565b610136610166366004610930565b6102f9565b610173610327565b60405161011a9190610d2c565b61013661018e36600461096b565b610337565b6101a66101a1366004610994565b610363565b005b61014b6101b63660046108dd565b610377565b6101a6610396565b6101cb6103aa565b60405161011a91906109ac565b61010d6103b9565b6101a66101ee366004610994565b6103c8565b61013661020136600461096b565b6103e1565b61013661021436600461096b565b610432565b61014b6102273660046108fe565b61044a565b6101a661023a3660046108dd565b610475565b60606003805461024e90610d5e565b80601f016020809104026020016040519081016040528092919081815260200182805461027a90610d5e565b80156102c75780601f1061029c576101008083540402835291602001916102c7565b820191906000526020600020905b8154815290600101906020018083116102aa57829003601f168201915b5050505050905090565b6000806102dc6104ac565b90506102e98185856104b0565b5060019392505050565b60025490565b6000806103046104ac565b9050610311858285610564565b61031c8585856105ae565b506001949350505050565b600554600160a01b900460ff1690565b6000806103426104ac565b90506102e9818585610354858961044a565b61035e9190610d3a565b6104b0565b61037461036e6104ac565b826106af565b50565b6001600160a01b0381166000908152602081905260409020545b919050565b61039e610787565b6103a860006107c6565b565b6005546001600160a01b031690565b60606004805461024e90610d5e565b6103d0610787565b6103746103db6104ac565b82610818565b6000806103ec6104ac565b905060006103fa828661044a565b9050838110156104255760405162461bcd60e51b815260040161041c90610ca7565b60405180910390fd5b61031c82868684036104b0565b60008061043d6104ac565b90506102e98185856105ae565b6001600160a01b03918216600090815260016020908152604080832093909416825291909152205490565b61047d610787565b6001600160a01b0381166104a35760405162461bcd60e51b815260040161041c90610aa3565b610374816107c6565b3390565b6001600160a01b0383166104d65760405162461bcd60e51b815260040161041c90610c63565b6001600160a01b0382166104fc5760405162461bcd60e51b815260040161041c90610ae9565b6001600160a01b0380841660008181526001602090815260408083209487168084529490915290819020849055517f8c5be1e5ebec7d5bd14f71427d1e84f3dd0314c0f7b2291e5b200ac8c7c3b92590610557908590610d23565b60405180910390a3505050565b6000610570848461044a565b905060001981146105a8578181101561059b5760405162461bcd60e51b815260040161041c90610b2b565b6105a884848484036104b0565b50505050565b6001600160a01b0383166105d45760405162461bcd60e51b815260040161041c90610c1e565b6001600160a01b0382166105fa5760405162461bcd60e51b815260040161041c90610a1e565b610605838383610782565b6001600160a01b0383166000908152602081905260409020548181101561063e5760405162461bcd60e51b815260040161041c90610b62565b6001600160a01b0380851660008181526020819052604080822086860390559286168082529083902080548601905591517fddf252ad1be2c89b69c2b068fc378daa952ba7f163c4a11628f55a4df523b3ef9061069c908690610d23565b60405180910390a36105a8848484610782565b6001600160a01b0382166106d55760405162461bcd60e51b815260040161041c90610bdd565b6106e182600083610782565b6001600160a01b0382166000908152602081905260409020548181101561071a5760405162461bcd60e51b815260040161041c90610a61565b6001600160a01b0383166000818152602081905260408082208585039055600280548690039055519091907fddf252ad1be2c89b69c2b068fc378daa952ba7f163c4a11628f55a4df523b3ef90610772908690610d23565b60405180910390a3610782836000845b505050565b61078f6104ac565b6001600160a01b03166107a06103aa565b6001600160a01b0316146103a85760405162461bcd60e51b815260040161041c90610ba8565b600580546001600160a01b038381166001600160a01b0319831681179093556040519116919082907f8be0079c531659141344cd1fd0a4f28419497f9722a3daafe3b4186f6b6457e090600090a35050565b6001600160a01b03821661083e5760405162461bcd60e51b815260040161041c90610cec565b61084a60008383610782565b806002600082825461085c9190610d3a565b90915550506001600160a01b038216600081815260208190526040808220805485019055517fddf252ad1be2c89b69c2b068fc378daa952ba7f163c4a11628f55a4df523b3ef906108ae908590610d23565b60405180910390a36108c260008383610782565b5050565b80356001600160a01b038116811461039157600080fd5b6000602082840312156108ee578081fd5b6108f7826108c6565b9392505050565b60008060408385031215610910578081fd5b610919836108c6565b9150610927602084016108c6565b90509250929050565b600080600060608486031215610944578081fd5b61094d846108c6565b925061095b602085016108c6565b9150604084013590509250925092565b6000806040838503121561097d578182fd5b610986836108c6565b946020939093013593505050565b6000602082840312156109a5578081fd5b5035919050565b6001600160a01b0391909116815260200190565b901515815260200190565b6000602080835283518082850152825b818110156109f7578581018301518582016040015282016109db565b81811115610a085783604083870101525b50601f01601f1916929092016040019392505050565b60208082526023908201527f45524332303a207472616e7366657220746f20746865207a65726f206164647260408201526265737360e81b606082015260800190565b60208082526022908201527f45524332303a206275726e20616d6f756e7420657863656564732062616c616e604082015261636560f01b606082015260800190565b60208082526026908201527f4f776e61626c653a206e6577206f776e657220697320746865207a65726f206160408201526564647265737360d01b606082015260800190565b60208082526022908201527f45524332303a20617070726f766520746f20746865207a65726f206164647265604082015261737360f01b606082015260800190565b6020808252601d908201527f45524332303a20696e73756666696369656e7420616c6c6f77616e6365000000604082015260600190565b60208082526026908201527f45524332303a207472616e7366657220616d6f756e7420657863656564732062604082015265616c616e636560d01b606082015260800190565b6020808252818101527f4f776e61626c653a2063616c6c6572206973206e6f7420746865206f776e6572604082015260600190565b60208082526021908201527f45524332303a206275726e2066726f6d20746865207a65726f206164647265736040820152607360f81b606082015260800190565b60208082526025908201527f45524332303a207472616e736665722066726f6d20746865207a65726f206164604082015264647265737360d81b606082015260800190565b60208082526024908201527f45524332303a20617070726f76652066726f6d20746865207a65726f206164646040820152637265737360e01b606082015260800190565b60208082526025908201527f45524332303a2064656372656173656420616c6c6f77616e63652062656c6f77604082015264207a65726f60d81b606082015260800190565b6020808252601f908201527f45524332303a206d696e7420746f20746865207a65726f206164647265737300604082015260600190565b90815260200190565b60ff91909116815260200190565b60008219821115610d5957634e487b7160e01b81526011600452602481fd5b500190565b600281046001821680610d7257607f821691505b60208210811415610d9357634e487b7160e01b600052602260045260246000fd5b5091905056fea2646970667358221220ffb777b33c1f4f7b253f862da946ac1929fa069ee74731a89d83a8eaacb1028c64736f6c63430008000033a2646970667358221220aed2fa9296d06393b5db2c0eb87c52336f5ff1233a898e5166a48758d01646ec64736f6c63430008000033",
  "immutableReferences": {},
  "source": "// SPDX-License-Identifier: MIT\r\npragma solidity ^0.8.0;\r\n\r\nimport \"./Address.sol\";\r\nimport \"@openzeppelin/contracts/utils/math/SafeMath.sol\";\r\nimport \"@openzeppelin/contracts/access/Ownable.sol\";\r\n// Tokens types\r\n// 1 = Standard, 2 = Burnable, 3 = Mintable\r\nimport \"./ERC20Free.sol\";\r\nimport \"./ERC20Standard.sol\";\r\nimport \"./ERC20Burnable.sol\";\r\nimport \"./ERC20Mintable.sol\";\r\n\r\ncontract MDATokenFactory is Ownable {\r\n    using Address for address;\r\n    using SafeMath for uint256;\r\n    using SafeMath for uint8;\r\n    using SafeMath for uint;\r\n\r\n    IERC20Metadata private mda;\r\n    uint256 private deployPriceBNB = 100000000000000000; // 0.1 BNB\r\n    uint256 private deployPriceMDA = 556799999999999930000; // 557 MDA (-20%) => 0.08 BNB\r\n\r\n    constructor(address _mda){\r\n        mda = IERC20Metadata(_mda);\r\n    }\r\n\r\n    function deployFree(\r\n        string memory name,\r\n        string memory symbol,\r\n        uint256 supply\r\n    ) external returns(address){\r\n        return address(new ERC20Free(\r\n            name,\r\n            symbol,\r\n            supply,\r\n            _msgSender()\r\n        ));\r\n    }\r\n\r\n    function _deploy(\r\n        string memory name,\r\n        string memory symbol,\r\n        uint8 decimals,\r\n        uint256 supply,\r\n        uint tokenType\r\n    ) private returns(address){\r\n        if(tokenType == 1)\r\n            return address(\r\n                new ERC20Standard(name, symbol, decimals, supply, _msgSender()));\r\n\r\n        if(tokenType == 2)\r\n            return address(\r\n                new ERC20Burnable(name, symbol, decimals, supply, _msgSender()));\r\n\r\n        if(tokenType == 3)\r\n            return address(\r\n                new ERC20Mintable(name, symbol, decimals, supply, _msgSender()));\r\n\r\n        return address(0);\r\n    }\r\n\r\n    function deployPaidBNB(\r\n        string memory name,\r\n        string memory symbol,\r\n        uint8 decimals,\r\n        uint256 supply,\r\n        uint tokenType\r\n    ) external payable returns(address){\r\n        require(msg.value == deployPriceBNB);\r\n\r\n        return _deploy(name, symbol, decimals, supply, tokenType);\r\n    }\r\n\r\n    function deployPaidMDA(\r\n        string memory name,\r\n        string memory symbol,\r\n        uint8 decimals,\r\n        uint256 supply,\r\n        uint tokenType\r\n    ) external returns(address){\r\n        require(mda.balanceOf(_msgSender()) >= deployPriceMDA);\r\n        require(mda.allowance(_msgSender(), address(this)) >= deployPriceMDA);\r\n        require(mda.transferFrom(_msgSender(), address(this), deployPriceMDA));\r\n\r\n        return _deploy(name, symbol, decimals, supply, tokenType);\r\n    }\r\n\r\n    function getDeployPriceMDA() external view returns(uint256){\r\n        return deployPriceMDA;\r\n    }\r\n\r\n    function getDeployPriceBNB() external view returns(uint256){\r\n        return deployPriceBNB;\r\n    }\r\n\r\n    function getPaidTokenAddress() external view returns(address){\r\n        return address(mda);\r\n    }\r\n\r\n    function getPaidTokenDecimals() external view returns(uint8){\r\n        return mda.decimals();\r\n    }\r\n\r\n    function updateDeployPriceMDA(uint256 newPrice) external onlyOwner {\r\n        deployPriceMDA = newPrice;\r\n    }\r\n\r\n    function updateDeployPriceBNB(uint256 newPrice) external onlyOwner {\r\n        deployPriceBNB = newPrice;\r\n    }\r\n\r\n    function withdrawBNB(address payable account) external onlyOwner {\r\n        (bool success, ) = account.call{value: address(this).balance}(\"\");\r\n        require(success);\r\n    }\r\n\r\n    function withdrawToken(address account, uint256 amount) external onlyOwner {\r\n        require(mda.transfer(account, amount));\r\n    }\r\n\r\n    function withdrawTokenAll(address account) external onlyOwner {\r\n        require(mda.transfer(account, mda.balanceOf(address(this))));\r\n    }\r\n\r\n    receive() external payable {}\r\n    fallback() external payable {}\r\n}",
  "sourcePath": "D:\\newgen\\contracts\\MDATokenFactory.sol",
  "compiler": {
    "name": "solc",
    "version": "0.8.0+commit.c7dfd78e.Emscripten.clang"
  },
  "schemaVersion": "3.4.16",
  "updatedAt": "2024-05-01T14:54:21.305Z",
  "networkType": "ethereum",
  "devdoc": {
    "kind": "dev",
    "methods": {
      "owner()": {
        "details": "Returns the address of the current owner."
      },
      "renounceOwnership()": {
        "details": "Leaves the contract without owner. It will not be possible to call `onlyOwner` functions. Can only be called by the current owner. NOTE: Renouncing ownership will leave the contract without an owner, thereby disabling any functionality that is only available to the owner."
      },
      "transferOwnership(address)": {
        "details": "Transfers ownership of the contract to a new account (`newOwner`). Can only be called by the current owner."
      }
    },
    "version": 1
  },
  "userdoc": {
    "kind": "user",
    "methods": {},
    "version": 1
  }
}